{"abi":[{"type":"constructor","inputs":[{"name":"setTreasuryWallet","type":"address","internalType":"address"},{"name":"setAuthorityAddress","type":"address","internalType":"address"},{"name":"setBaseToken","type":"address","internalType":"address"},{"name":"owner","type":"address","internalType":"address"},{"name":"platfromFeeinPPM","type":"uint256","internalType":"uint256"}],"stateMutability":"nonpayable"},{"type":"function","name":"baseToken","inputs":[],"outputs":[{"name":"","type":"address","internalType":"contract IERC20"}],"stateMutability":"view"},{"type":"function","name":"cancleOrder","inputs":[{"name":"orderID","type":"uint256","internalType":"uint256"},{"name":"amount","type":"uint256","internalType":"uint256"},{"name":"signature","type":"bytes","internalType":"bytes"}],"outputs":[],"stateMutability":"nonpayable"},{"type":"function","name":"claimFund","inputs":[{"name":"orderID","type":"uint256[]","internalType":"uint256[]"},{"name":"amount","type":"uint256","internalType":"uint256"},{"name":"signature","type":"bytes","internalType":"bytes"}],"outputs":[],"stateMutability":"nonpayable"},{"type":"function","name":"fundsClaimedByMerchant","inputs":[{"name":"","type":"address","internalType":"address"}],"outputs":[{"name":"","type":"bool","internalType":"bool"}],"stateMutability":"view"},{"type":"function","name":"fundsClaimedByOrderID","inputs":[{"name":"","type":"uint256","internalType":"uint256"}],"outputs":[{"name":"","type":"bool","internalType":"bool"}],"stateMutability":"view"},{"type":"function","name":"orderIDBuyer","inputs":[{"name":"","type":"uint256","internalType":"uint256"}],"outputs":[{"name":"","type":"address","internalType":"address"}],"stateMutability":"view"},{"type":"function","name":"orderIDPlaced","inputs":[{"name":"","type":"uint256","internalType":"uint256"}],"outputs":[{"name":"","type":"bool","internalType":"bool"}],"stateMutability":"view"},{"type":"function","name":"orderIDTimestamp","inputs":[{"name":"","type":"uint256","internalType":"uint256"}],"outputs":[{"name":"","type":"uint256","internalType":"uint256"}],"stateMutability":"view"},{"type":"function","name":"owner","inputs":[],"outputs":[{"name":"","type":"address","internalType":"address"}],"stateMutability":"view"},{"type":"function","name":"pay","inputs":[{"name":"orderID","type":"uint256","internalType":"uint256"},{"name":"amount","type":"uint256","internalType":"uint256"},{"name":"signature","type":"bytes","internalType":"bytes"}],"outputs":[],"stateMutability":"nonpayable"},{"type":"function","name":"platformFee","inputs":[],"outputs":[{"name":"","type":"uint256","internalType":"uint256"}],"stateMutability":"view"},{"type":"function","name":"refundOrder","inputs":[{"name":"orderID","type":"uint256","internalType":"uint256"},{"name":"amount","type":"uint256","internalType":"uint256"},{"name":"signature","type":"bytes","internalType":"bytes"}],"outputs":[],"stateMutability":"nonpayable"},{"type":"function","name":"renounceOwnership","inputs":[],"outputs":[],"stateMutability":"nonpayable"},{"type":"function","name":"signatureUsed","inputs":[{"name":"","type":"bytes","internalType":"bytes"}],"outputs":[{"name":"","type":"bool","internalType":"bool"}],"stateMutability":"view"},{"type":"function","name":"transferOwnership","inputs":[{"name":"newOwner","type":"address","internalType":"address"}],"outputs":[],"stateMutability":"nonpayable"},{"type":"function","name":"updateAuthorityAddress","inputs":[{"name":"newAuthorityAddress","type":"address","internalType":"address"}],"outputs":[],"stateMutability":"nonpayable"},{"type":"function","name":"updatePlatfromFeeInPPM","inputs":[{"name":"setPlatfromFeeInPPM","type":"uint256","internalType":"uint256"}],"outputs":[],"stateMutability":"nonpayable"},{"type":"function","name":"updateTreasuryWallet","inputs":[{"name":"newTreasuryWallet","type":"address","internalType":"address"}],"outputs":[],"stateMutability":"nonpayable"},{"type":"event","name":"AuthorityAddressUpdated","inputs":[{"name":"previousAuthorityAddress","type":"address","indexed":true,"internalType":"address"},{"name":"newAuthorityAddress","type":"address","indexed":true,"internalType":"address"}],"anonymous":false},{"type":"event","name":"ConstructorSet","inputs":[{"name":"","type":"address","indexed":false,"internalType":"address"},{"name":"","type":"address","indexed":false,"internalType":"address"},{"name":"","type":"address","indexed":false,"internalType":"address"},{"name":"","type":"uint256","indexed":false,"internalType":"uint256"}],"anonymous":false},{"type":"event","name":"FundsClaimedByMerchant","inputs":[{"name":"amount","type":"uint256","indexed":false,"internalType":"uint256"},{"name":"merchant","type":"address","indexed":true,"internalType":"address"}],"anonymous":false},{"type":"event","name":"OrderCancled","inputs":[{"name":"orderID","type":"uint256","indexed":false,"internalType":"uint256"},{"name":"amount","type":"uint256","indexed":false,"internalType":"uint256"},{"name":"buyer","type":"address","indexed":true,"internalType":"address"}],"anonymous":false},{"type":"event","name":"OrderPaid","inputs":[{"name":"orderID","type":"uint256","indexed":false,"internalType":"uint256"},{"name":"amount","type":"uint256","indexed":false,"internalType":"uint256"},{"name":"buyer","type":"address","indexed":true,"internalType":"address"}],"anonymous":false},{"type":"event","name":"OwnershipTransferred","inputs":[{"name":"previousOwner","type":"address","indexed":true,"internalType":"address"},{"name":"newOwner","type":"address","indexed":true,"internalType":"address"}],"anonymous":false},{"type":"event","name":"RefundsClaimed","inputs":[{"name":"orderID","type":"uint256","indexed":false,"internalType":"uint256"},{"name":"amount","type":"uint256","indexed":false,"internalType":"uint256"},{"name":"buyer","type":"address","indexed":true,"internalType":"address"}],"anonymous":false},{"type":"event","name":"TreasuryWalletIsUpdated","inputs":[{"name":"previousTreasuryWallet","type":"address","indexed":true,"internalType":"address"},{"name":"newTreasuryWallet","type":"address","indexed":true,"internalType":"address"}],"anonymous":false},{"type":"event","name":"checkNow","inputs":[{"name":"","type":"uint256","indexed":false,"internalType":"uint256"}],"anonymous":false},{"type":"error","name":"ECDSAInvalidSignature","inputs":[]},{"type":"error","name":"ECDSAInvalidSignatureLength","inputs":[{"name":"length","type":"uint256","internalType":"uint256"}]},{"type":"error","name":"ECDSAInvalidSignatureS","inputs":[{"name":"s","type":"bytes32","internalType":"bytes32"}]},{"type":"error","name":"FundsAlreadyClaimed","inputs":[]},{"type":"error","name":"InvalidAddress","inputs":[]},{"type":"error","name":"InvalidSignature","inputs":[]},{"type":"error","name":"OrderDoesnotExist","inputs":[]},{"type":"error","name":"OrderIDAlreadyExist","inputs":[]},{"type":"error","name":"OwnableInvalidOwner","inputs":[{"name":"owner","type":"address","internalType":"address"}]},{"type":"error","name":"OwnableUnauthorizedAccount","inputs":[{"name":"account","type":"address","internalType":"address"}]},{"type":"error","name":"ReentrancyGuardReentrantCall","inputs":[]},{"type":"error","name":"RefundTimePassed","inputs":[]},{"type":"error","name":"SafeERC20FailedOperation","inputs":[{"name":"token","type":"address","internalType":"address"}]},{"type":"error","name":"SignatureUsed","inputs":[]},{"type":"error","name":"YouAreNotBuyer","inputs":[]}],"bytecode":{"object":"0x60a0346101d257601f61110838819003918201601f19168301916001600160401b038311848410176101d65780849260a0946040528339810103126101d257610047816101ea565b610053602083016101ea565b90610060604084016101ea565b92608061006f606083016101ea565b9101516001600160a01b039091169182156101bf575f80546001600160a01b031981168517825560405194916001600160a01b03909116907f8be0079c531659141344cd1fd0a4f28419497f9722a3daafe3b4186f6b6457e09080a36001600160a01b0316801580156101ae575b801561019d575b61018e577f1f02f7495216f0d6382b2e6c2fa1a176c737b669e6c41e9f5c7087e4c5feb9cb946080948260018060a01b0319600154161760015560018060a01b0316908160018060a01b0319600254161760025560018060a01b031691828652836003558452602084015260408301526060820152a1604051610f0990816101ff8239608051818181610331015281816104b6015281816105c50152818161096e0152610aad0152f35b63e6c4247b60e01b5f5260045ffd5b506001600160a01b038516156100e4565b506001600160a01b038416156100dd565b631e4fbdf760e01b5f525f60045260245ffd5b5f80fd5b634e487b7160e01b5f52604160045260245ffd5b51906001600160a01b03821682036101d25756fe6080806040526004361015610012575f80fd5b5f3560e01c90816301892fe814610b315750806326232a2e14610b1457806336efa398146109d45780633c3f73b81461084657806341fcccd7146108055780635eba6489146107d35780636c4e8b28146107a4578063715018a61461074d578063809d458d146106dd5780638da5cb5b146106b6578063bb10c8291461064a578063c49833ac146104e5578063c55dae63146104a1578063ccfc456914610431578063d3d30cac146101bf578063ee86aaba14610190578063f2fde38b146101075763f8421db1146100e2575f80fd5b34610103576020366003190112610103576100fb610cfa565b600435600355005b5f80fd5b34610103576020366003190112610103576004356001600160a01b0381169081900361010357610135610cfa565b801561017d575f80546001600160a01b03198116831782556001600160a01b0316907f8be0079c531659141344cd1fd0a4f28419497f9722a3daafe3b4186f6b6457e09080a3005b631e4fbdf760e01b5f525f60045260245ffd5b34610103576020366003190112610103576004355f526005602052602060ff60405f2054166040519015158152f35b346101035760603660031901126101035760043567ffffffffffffffff811161010357366023820112156101035780600401359067ffffffffffffffff821161041d578160051b90604051926102186020840185610bbc565b835260208301602481938301019136831161010357602401905b82821061040d575050506024359160443567ffffffffffffffff811161010357610260903690600401610b57565b818194929361026d610c24565b60018060a01b036002541690604051602081018092519096905f5b8181106103f1575050506102cc604c826102d5983360601b81528c60148201523060601b60348201526334f4c32b60e21b604882015203602c810184520182610bbc565b51902090610c59565b156103e25760ff60405183838237602081858101600481520301902054166103d35760209082604051938492833781016004815203019020600160ff19825416179055617530810281810461753014821517156103bf576001547f000000000000000000000000000000000000000000000000000000000000000091620f424090049061036d9082906001600160a01b031684610cb8565b82038281116103bf57610381913390610cb8565b6040519081527f6a9afaefba2a9301f7f78344c1ac06a920d29c2c562a9a84c619dff38dfa4e5c60203392a25f5f516020610eb45f395f51905f525d005b634e487b7160e01b5f52601160045260245ffd5b630d75493360e01b5f5260045ffd5b638baa579f60e01b5f5260045ffd5b825189526020988901988b98508a975090920191600101610288565b8135815260209182019101610232565b634e487b7160e01b5f52604160045260245ffd5b34610103576020366003190112610103576004356001600160a01b038116908190036101035761045f610cfa565b600254816001600160a01b0382167f741ee0e619c436098dff0f2be43023c24aef6c4c3134ca5db37746bb1088d0df5f80a36001600160a01b03191617600255005b34610103575f366003190112610103576040517f00000000000000000000000000000000000000000000000000000000000000006001600160a01b03168152602090f35b34610103576104f336610b85565b906104fc610c24565b835f52600560205260ff60405f2054161561063b5760ff60405183838237602081858101600481520301902054166103d357835f5260086020523360018060a01b0360405f2054160361062c57610598828260018060a01b036002541660405160208101908982523360601b60408201528860548201523060601b60748201526331260ceb60e21b6088820152606c81526102cc608c82610bbc565b156103e25760209082604051938492833781016004815203019020600160ff198254161790556105e981337f0000000000000000000000000000000000000000000000000000000000000000610cb8565b60405191825260208201527f03a4c0641badf98b41949aa6525e60f43f393ab8f41962c994b7646a76c3c91860403392a25f5f516020610eb45f395f51905f525d005b630511bb3360e51b5f5260045ffd5b634349647b60e01b5f5260045ffd5b346101035760203660031901126101035760043567ffffffffffffffff811161010357366023820112156101035760ff60208061069281943690602481600401359101610bde565b604051928184925191829101835e8101600481520301902054166040519015158152f35b34610103575f366003190112610103575f546040516001600160a01b039091168152602090f35b34610103576020366003190112610103576004356001600160a01b038116908190036101035761070b610cfa565b600154816001600160a01b0382167f8f2838a3cbd26da0622eeb1dd9cdc29cb0ef11b66ea9a7ec663cef0504f60d285f80a36001600160a01b03191617600155005b34610103575f36600319011261010357610765610cfa565b5f80546001600160a01b0319811682556001600160a01b03167f8be0079c531659141344cd1fd0a4f28419497f9722a3daafe3b4186f6b6457e08280a3005b34610103576020366003190112610103576004355f526006602052602060ff60405f2054166040519015158152f35b34610103576020366003190112610103576004355f526008602052602060018060a01b0360405f205416604051908152f35b34610103576020366003190112610103576004356001600160a01b03811690819003610103575f526007602052602060ff60405f2054166040519015158152f35b346101035761085436610b85565b90835f52600560205260ff60405f2054166109c55760ff60405183838237602081858101600481520301902054166103d3576108d5828260018060a01b036002541660405160208101908982523360601b60408201528860548201523060601b6074820152630787ee7760e31b6088820152606c81526102cc608c82610bbc565b156103e2575f848152600560209081526040808320805460ff191660011790556008825280832080546001600160a01b03191633179055600982529182902042905590519290918391908190833781016004815203019020600160ff198254161790556109926040516323b872dd60e01b60208201523360248201523060448201528260648201526064815261096c608482610bbc565b7f0000000000000000000000000000000000000000000000000000000000000000610d20565b60405191825260208201527f32ee142470857cdab7d70a940690e49af06f91f2a3916ac2868c245095e2b17d60403392a2005b630b66375d60e11b5f5260045ffd5b34610103576109e236610b85565b906109eb610c24565b835f52600560205260ff60405f2054161561063b5760ff60405183838237602081858101600481520301902054166103d357610a6c828260018060a01b036002541660405160208101908982523360601b60408201528860548201523060601b60748201526306ddf47360e31b6088820152606c81526102cc608c82610bbc565b156103e25760209082604051938492833781016004815203019020600160ff19825416179055815f526008602052610ad18160018060a01b0360405f2054167f0000000000000000000000000000000000000000000000000000000000000000610cb8565b60405191825260208201527fb17d038b9563b75f6862c9ecfc09d39034951a1072abf1cc48184f95088eab1a60403392a25f5f516020610eb45f395f51905f525d005b34610103575f366003190112610103576020600354604051908152f35b34610103576020366003190112610103576020906004355f526009825260405f20548152f35b9181601f840112156101035782359167ffffffffffffffff8311610103576020838186019501011161010357565b60606003198201126101035760043591602435916044359067ffffffffffffffff821161010357610bb891600401610b57565b9091565b90601f8019910116810190811067ffffffffffffffff82111761041d57604052565b92919267ffffffffffffffff821161041d5760405191610c08601f8201601f191660200184610bbc565b829481845281830111610103578281602093845f960137010152565b5f516020610eb45f395f51905f525c610c4a5760015f516020610eb45f395f51905f525d565b633ee5aeb560e01b5f5260045ffd5b9192610c98610ca794610c9e937f19457468657265756d205369676e6564204d6573736167653a0a3332000000005f52601c52603c5f20923691610bde565b90610d83565b90939193610dbd565b6001600160a01b0391821691161490565b60405163a9059cbb60e01b60208201526001600160a01b039092166024830152604480830193909352918152610cf891610cf3606483610bbc565b610d20565b565b5f546001600160a01b03163303610d0d57565b63118cdaa760e01b5f523360045260245ffd5b905f602091828151910182855af115610d78575f513d610d6f57506001600160a01b0381163b155b610d4f5750565b635274afe760e01b5f9081526001600160a01b0391909116600452602490fd5b60011415610d48565b6040513d5f823e3d90fd5b8151919060418303610db357610dac9250602082015190606060408401519301515f1a90610e31565b9192909190565b50505f9160029190565b6004811015610e1d5780610dcf575050565b60018103610de65763f645eedf60e01b5f5260045ffd5b60028103610e01575063fce698f760e01b5f5260045260245ffd5b600314610e0b5750565b6335e2f38360e21b5f5260045260245ffd5b634e487b7160e01b5f52602160045260245ffd5b91907f7fffffffffffffffffffffffffffffff5d576e7357a4501ddfe92f46681b20a08411610ea8579160209360809260ff5f9560405194855216868401526040830152606082015282805260015afa15610d78575f516001600160a01b03811615610e9e57905f905f90565b505f906001905f90565b5050505f916003919056fe9b779b17422d0df92223018b32b4d1fa46e071723d6817e2486d003becc55f00a2646970667358221220ca792c4d9dc431c170710ed9efe1a1909818da22bd11e1232f30e83350ebdd4664736f6c634300081c0033","linkReferences":{}},"methodIdentifiers":{"baseToken()":"c55dae63","cancleOrder(uint256,uint256,bytes)":"36efa398","claimFund(uint256[],uint256,bytes)":"d3d30cac","fundsClaimedByMerchant(address)":"41fcccd7","fundsClaimedByOrderID(uint256)":"6c4e8b28","orderIDBuyer(uint256)":"5eba6489","orderIDPlaced(uint256)":"ee86aaba","orderIDTimestamp(uint256)":"01892fe8","owner()":"8da5cb5b","pay(uint256,uint256,bytes)":"3c3f73b8","platformFee()":"26232a2e","refundOrder(uint256,uint256,bytes)":"c49833ac","renounceOwnership()":"715018a6","signatureUsed(bytes)":"bb10c829","transferOwnership(address)":"f2fde38b","updateAuthorityAddress(address)":"ccfc4569","updatePlatfromFeeInPPM(uint256)":"f8421db1","updateTreasuryWallet(address)":"809d458d"},"id":37}