{"abi":[{"type":"constructor","inputs":[],"stateMutability":"nonpayable"},{"type":"function","name":"_decimals","inputs":[],"outputs":[{"name":"","type":"uint8","internalType":"uint8"}],"stateMutability":"view"},{"type":"function","name":"_name","inputs":[],"outputs":[{"name":"","type":"string","internalType":"string"}],"stateMutability":"view"},{"type":"function","name":"_symbol","inputs":[],"outputs":[{"name":"","type":"string","internalType":"string"}],"stateMutability":"view"},{"type":"function","name":"allowance","inputs":[{"name":"owner","type":"address","internalType":"address"},{"name":"spender","type":"address","internalType":"address"}],"outputs":[{"name":"","type":"uint256","internalType":"uint256"}],"stateMutability":"view"},{"type":"function","name":"approve","inputs":[{"name":"spender","type":"address","internalType":"address"},{"name":"amount","type":"uint256","internalType":"uint256"}],"outputs":[{"name":"","type":"bool","internalType":"bool"}],"stateMutability":"nonpayable"},{"type":"function","name":"balanceOf","inputs":[{"name":"account","type":"address","internalType":"address"}],"outputs":[{"name":"","type":"uint256","internalType":"uint256"}],"stateMutability":"view"},{"type":"function","name":"burn","inputs":[{"name":"amount","type":"uint256","internalType":"uint256"}],"outputs":[{"name":"","type":"bool","internalType":"bool"}],"stateMutability":"nonpayable"},{"type":"function","name":"decimals","inputs":[],"outputs":[{"name":"","type":"uint8","internalType":"uint8"}],"stateMutability":"view"},{"type":"function","name":"decreaseAllowance","inputs":[{"name":"spender","type":"address","internalType":"address"},{"name":"subtractedValue","type":"uint256","internalType":"uint256"}],"outputs":[{"name":"","type":"bool","internalType":"bool"}],"stateMutability":"nonpayable"},{"type":"function","name":"getOwner","inputs":[],"outputs":[{"name":"","type":"address","internalType":"address"}],"stateMutability":"view"},{"type":"function","name":"increaseAllowance","inputs":[{"name":"spender","type":"address","internalType":"address"},{"name":"addedValue","type":"uint256","internalType":"uint256"}],"outputs":[{"name":"","type":"bool","internalType":"bool"}],"stateMutability":"nonpayable"},{"type":"function","name":"mint","inputs":[{"name":"amount","type":"uint256","internalType":"uint256"}],"outputs":[{"name":"","type":"bool","internalType":"bool"}],"stateMutability":"nonpayable"},{"type":"function","name":"name","inputs":[],"outputs":[{"name":"","type":"string","internalType":"string"}],"stateMutability":"view"},{"type":"function","name":"owner","inputs":[],"outputs":[{"name":"","type":"address","internalType":"address"}],"stateMutability":"view"},{"type":"function","name":"renounceOwnership","inputs":[],"outputs":[],"stateMutability":"nonpayable"},{"type":"function","name":"symbol","inputs":[],"outputs":[{"name":"","type":"string","internalType":"string"}],"stateMutability":"view"},{"type":"function","name":"totalSupply","inputs":[],"outputs":[{"name":"","type":"uint256","internalType":"uint256"}],"stateMutability":"view"},{"type":"function","name":"transfer","inputs":[{"name":"recipient","type":"address","internalType":"address"},{"name":"amount","type":"uint256","internalType":"uint256"}],"outputs":[{"name":"","type":"bool","internalType":"bool"}],"stateMutability":"nonpayable"},{"type":"function","name":"transferFrom","inputs":[{"name":"sender","type":"address","internalType":"address"},{"name":"recipient","type":"address","internalType":"address"},{"name":"amount","type":"uint256","internalType":"uint256"}],"outputs":[{"name":"","type":"bool","internalType":"bool"}],"stateMutability":"nonpayable"},{"type":"function","name":"transferOwnership","inputs":[{"name":"newOwner","type":"address","internalType":"address"}],"outputs":[],"stateMutability":"nonpayable"},{"type":"event","name":"Approval","inputs":[{"name":"owner","type":"address","indexed":true,"internalType":"address"},{"name":"spender","type":"address","indexed":true,"internalType":"address"},{"name":"value","type":"uint256","indexed":false,"internalType":"uint256"}],"anonymous":false},{"type":"event","name":"OwnershipTransferred","inputs":[{"name":"previousOwner","type":"address","indexed":true,"internalType":"address"},{"name":"newOwner","type":"address","indexed":true,"internalType":"address"}],"anonymous":false},{"type":"event","name":"Transfer","inputs":[{"name":"from","type":"address","indexed":true,"internalType":"address"},{"name":"to","type":"address","indexed":true,"internalType":"address"},{"name":"value","type":"uint256","indexed":false,"internalType":"uint256"}],"anonymous":false}],"bytecode":{"object":"0x60806040523461016e575f80546001600160a01b031916339081178255907f8be0079c531659141344cd1fd0a4f28419497f9722a3daafe3b4186f6b6457e08180a361004c600654610172565b601f8111610126575b506008631554d11560e21b0160065560055461007090610172565b601f81116100fb575b6008631d5cd91d60e21b01600555600660ff1960045416176004556a18d0bf423c03d8de000000600355335f5260016020526a18d0bf423c03d8de00000060405f20556003546040519081525f7fddf252ad1be2c89b69c2b068fc378daa952ba7f163c4a11628f55a4df523b3ef60203393a3604051610d0990816101ab8239f35b60055f52601f60205f20910160051c8101905b81811061011b5750610079565b5f815560010161010e565b60065f52601f0160051c7ff652222313e28459528d920b65115c16c04f3efc82aaedc97be59f3f377c0d3f908101905b8181106101635750610055565b5f8155600101610156565b5f80fd5b90600182811c921680156101a0575b602083101461018c57565b634e487b7160e01b5f52602260045260245ffd5b91607f169161018156fe60806040526004361015610011575f80fd5b5f3560e01c806306fdde0314610213578063095ea7b31461072857806318160ddd1461070b57806323b872dd1461065a578063313ce5671461063a57806332424aa31461063a57806339509351146105f357806342966c68146104a257806370a082311461046a578063715018a61461040f578063893d20e8146103e85780638da5cb5b146103e857806395d89b411461023e578063a0712d681461031f578063a457c2d71461028a578063a9059cbb14610259578063b09f12661461023e578063d28d885214610213578063dd62ed3e146101c35763f2fde38b146100f5575f80fd5b346101bf5760203660031901126101bf5761010e610778565b5f546001600160a01b03811691610126338414610968565b6001600160a01b031691821561016b5782907f8be0079c531659141344cd1fd0a4f28419497f9722a3daafe3b4186f6b6457e05f80a36001600160a01b031916175f55005b60405162461bcd60e51b815260206004820152602660248201527f4f776e61626c653a206e6577206f776e657220697320746865207a65726f206160448201526564647265737360d01b6064820152608490fd5b5f80fd5b346101bf5760403660031901126101bf576101dc610778565b6101e461078e565b6001600160a01b039182165f908152600260209081526040808320949093168252928352819020549051908152f35b346101bf575f3660031901126101bf5761023a61022e6107da565b6040519182918261074e565b0390f35b346101bf575f3660031901126101bf5761023a61022e6108bc565b346101bf5760403660031901126101bf5761027f610275610778565b6024359033610ab7565b602060405160018152f35b346101bf5760403660031901126101bf5761027f6102a6610778565b335f52600260205260405f2060018060a01b0382165f5260205261031860405f2054604051906102d76060836107a4565b602582527f42455032303a2064656372656173656420616c6c6f77616e63652062656c6f77602083015264207a65726f60d81b604083015260243590610c31565b90336109b3565b346101bf5760203660031901126101bf5760043533156103a35761034581600354610c7a565b600355335f52600160205261035e8160405f2054610c7a565b335f52600160205260405f20556040519081525f7fddf252ad1be2c89b69c2b068fc378daa952ba7f163c4a11628f55a4df523b3ef60203393a3602060405160018152f35b60405162461bcd60e51b815260206004820152601f60248201527f42455032303a206d696e7420746f20746865207a65726f2061646472657373006044820152606490fd5b346101bf575f3660031901126101bf575f546040516001600160a01b039091168152602090f35b346101bf575f3660031901126101bf575f8054906001600160a01b038216610438338214610968565b7f8be0079c531659141344cd1fd0a4f28419497f9722a3daafe3b4186f6b6457e08280a36001600160a01b0319165f55005b346101bf5760203660031901126101bf576001600160a01b0361048b610778565b165f526001602052602060405f2054604051908152f35b346101bf5760203660031901126101bf5760043533156105a4575f903382526001602052610518604083205482604051916104de6060846107a4565b602283527f42455032303a206275726e20616d6f756e7420657863656564732062616c616e602084015261636560f01b6040840152610c31565b3383526001602052604083205561056a600354826040519161053b6040846107a4565b601e83527f536166654d6174683a207375627472616374696f6e206f766572666c6f7700006020840152610c31565b6003556040519081527fddf252ad1be2c89b69c2b068fc378daa952ba7f163c4a11628f55a4df523b3ef60203392a3602060405160018152f35b60405162461bcd60e51b815260206004820152602160248201527f42455032303a206275726e2066726f6d20746865207a65726f206164647265736044820152607360f81b6064820152608490fd5b346101bf5760403660031901126101bf5761027f61060f610778565b335f52600260205260405f2060018060a01b0382165f5260205261031860405f206024359054610c7a565b346101bf575f3660031901126101bf57602060ff60045416604051908152f35b346101bf5760603660031901126101bf5761027f610676610778565b61070361068161078e565b61068f604435809285610ab7565b6001600160a01b0383165f9081526002602090815260408083203384529091529081902054905191906106c36060846107a4565b602883527f42455032303a207472616e7366657220616d6f756e74206578636565647320616020840152676c6c6f77616e636560c01b6040840152610c31565b9033906109b3565b346101bf575f3660031901126101bf576020600354604051908152f35b346101bf5760403660031901126101bf5761027f610744610778565b60243590336109b3565b602060409281835280519182918282860152018484015e5f828201840152601f01601f1916010190565b600435906001600160a01b03821682036101bf57565b602435906001600160a01b03821682036101bf57565b90601f8019910116810190811067ffffffffffffffff8211176107c657604052565b634e487b7160e01b5f52604160045260245ffd5b604051905f6006548060011c91600182169182156108b2575b60208410831461089e57838652859290811561087f5750600114610820575b61081e925003836107a4565b565b5060065f90815290917ff652222313e28459528d920b65115c16c04f3efc82aaedc97be59f3f377c0d3f5b81831061086357505090602061081e92820101610812565b602091935080600191548385890101520191019091849261084b565b6020925061081e94915060ff191682840152151560051b820101610812565b634e487b7160e01b5f52602260045260245ffd5b92607f16926107f3565b604051905f6005548060011c916001821691821561095e575b60208410831461089e57838652859290811561087f57506001146108ff5761081e925003836107a4565b5060055f90815290917f036b6384b5eca791c62761152d0c79bb0604c104a5fb6f4eb0703f3154bb3db05b81831061094257505090602061081e92820101610812565b602091935080600191548385890101520191019091849261092a565b92607f16926108d5565b1561096f57565b606460405162461bcd60e51b815260206004820152602060248201527f4f776e61626c653a2063616c6c6572206973206e6f7420746865206f776e65726044820152fd5b6001600160a01b0316908115610a66576001600160a01b0316918215610a165760207f8c5be1e5ebec7d5bd14f71427d1e84f3dd0314c0f7b2291e5b200ac8c7c3b92591835f526002825260405f20855f5282528060405f2055604051908152a3565b60405162461bcd60e51b815260206004820152602260248201527f42455032303a20617070726f766520746f20746865207a65726f206164647265604482015261737360f01b6064820152608490fd5b60405162461bcd60e51b8152602060048201526024808201527f42455032303a20617070726f76652066726f6d20746865207a65726f206164646044820152637265737360e01b6064820152608490fd5b6001600160a01b0316908115610bde576001600160a01b0316918215610b8d5760207fddf252ad1be2c89b69c2b068fc378daa952ba7f163c4a11628f55a4df523b3ef91835f5260018252610b5760405f20548260405191610b1a6060846107a4565b602683527f42455032303a207472616e7366657220616d6f756e74206578636565647320628684015265616c616e636560d01b6040840152610c31565b845f526001835260405f2055845f5260018252610b788160405f2054610c7a565b855f526001835260405f2055604051908152a3565b60405162461bcd60e51b815260206004820152602360248201527f42455032303a207472616e7366657220746f20746865207a65726f206164647260448201526265737360e81b6064820152608490fd5b60405162461bcd60e51b815260206004820152602560248201527f42455032303a207472616e736665722066726f6d20746865207a65726f206164604482015264647265737360d81b6064820152608490fd5b91828211610c5a57508103908111610c465790565b634e487b7160e01b5f52601160045260245ffd5b60405162461bcd60e51b8152908190610c76906004830161074e565b0390fd5b90810190818111610c46578110610c8e5790565b60405162461bcd60e51b815260206004820152601b60248201527f536166654d6174683a206164646974696f6e206f766572666c6f7700000000006044820152606490fdfea264697066735822122006a934eda988d9c7b4357861eafaa9df2826d66f31b5041f64c8e5e3fa0a7a2964736f6c634300081c0033","linkReferences":{}},"methodIdentifiers":{"_decimals()":"32424aa3","_name()":"d28d8852","_symbol()":"b09f1266","allowance(address,address)":"dd62ed3e","approve(address,uint256)":"095ea7b3","balanceOf(address)":"70a08231","burn(uint256)":"42966c68","decimals()":"313ce567","decreaseAllowance(address,uint256)":"a457c2d7","getOwner()":"893d20e8","increaseAllowance(address,uint256)":"39509351","mint(uint256)":"a0712d68","name()":"06fdde03","owner()":"8da5cb5b","renounceOwnership()":"715018a6","symbol()":"95d89b41","totalSupply()":"18160ddd","transfer(address,uint256)":"a9059cbb","transferFrom(address,address,uint256)":"23b872dd","transferOwnership(address)":"f2fde38b"},"id":15}